{
  "abi": [
    {
      "inputs": [],
      "stateMutability": "nonpayable",
      "type": "constructor"
    },
    {
      "inputs": [
        {
          "internalType": "bytes32",
          "name": "id",
          "type": "bytes32"
        },
        {
          "internalType": "uint256",
          "name": "drawnBalance",
          "type": "uint256"
        },
        {
          "internalType": "uint256",
          "name": "facilityBalance",
          "type": "uint256"
        }
      ],
      "name": "accrueInterest",
      "outputs": [
        {
          "internalType": "uint256",
          "name": "",
          "type": "uint256"
        }
      ],
      "stateMutability": "nonpayable",
      "type": "function"
    },
    {
      "inputs": [
        {
          "internalType": "bytes32",
          "name": "",
          "type": "bytes32"
        }
      ],
      "name": "rates",
      "outputs": [
        {
          "internalType": "uint128",
          "name": "drawnRate",
          "type": "uint128"
        },
        {
          "internalType": "uint128",
          "name": "facilityRate",
          "type": "uint128"
        },
        {
          "internalType": "uint256",
          "name": "lastAccrued",
          "type": "uint256"
        }
      ],
      "stateMutability": "view",
      "type": "function"
    },
    {
      "inputs": [
        {
          "internalType": "bytes32",
          "name": "id",
          "type": "bytes32"
        },
        {
          "internalType": "uint128",
          "name": "drawnRate",
          "type": "uint128"
        },
        {
          "internalType": "uint128",
          "name": "facilityRate",
          "type": "uint128"
        }
      ],
      "name": "setRate",
      "outputs": [
        {
          "internalType": "bool",
          "name": "",
          "type": "bool"
        }
      ],
      "stateMutability": "nonpayable",
      "type": "function"
    }
  ],
  "bytecode": {
    "object": "0x60a060405234801561001057600080fd5b503360805260805161048f6100366000396000818160fe01526101a7015261048f6000f3fe608060405234801561001057600080fd5b50600436106100415760003560e01c80639412647f14610046578063c61983521461006e578063dc7262051461008f575b600080fd5b61005961005436600461030d565b6100f1565b60405190151581526020015b60405180910390f35b61008161007c366004610349565b61019a565b604051908152602001610065565b6100cb61009d366004610375565b600060208190529081526040902080546001909101546001600160801b0380831692600160801b9004169083565b604080516001600160801b03948516815293909216602084015290820152606001610065565b6000336001600160a01b037f000000000000000000000000000000000000000000000000000000000000000016146101445760405162461bcd60e51b815260040161013b9061038e565b60405180910390fd5b50604080516060810182526001600160801b038085168252838116602080840191825242848601908152600089815291829052949020925190518216600160801b02911617815590516001918201559392505050565b6000336001600160a01b037f000000000000000000000000000000000000000000000000000000000000000016146101e45760405162461bcd60e51b815260040161013b9061038e565b6101ef8484846101f7565b949350505050565b600083815260208181526040808320815160608101835281546001600160801b038082168352600160801b909104169381019390935260010154908201819052829061024390426103e9565b600087815260208190526040902042600190910155905061026a6127106301e187e0610400565b8161027587876103e9565b84602001516001600160801b031661028d9190610400565b6102979190610400565b6102a1919061041f565b6102b16127106301e187e0610400565b835183906102c99089906001600160801b0316610400565b6102d39190610400565b6102dd919061041f565b6102e79190610441565b9695505050505050565b80356001600160801b038116811461030857600080fd5b919050565b60008060006060848603121561032257600080fd5b83359250610332602085016102f1565b9150610340604085016102f1565b90509250925092565b60008060006060848603121561035e57600080fd5b505081359360208301359350604090920135919050565b60006020828403121561038757600080fd5b5035919050565b60208082526025908201527f496e74657265737452617465437265643a206f6e6c79206c696e6520636f6e746040820152643930b1ba1760d91b606082015260800190565b634e487b7160e01b600052601160045260246000fd5b6000828210156103fb576103fb6103d3565b500390565b600081600019048311821515161561041a5761041a6103d3565b500290565b60008261043c57634e487b7160e01b600052601260045260246000fd5b500490565b60008219821115610454576104546103d3565b50019056fea26469706673582212200185cf8dcd2cc4aa414064df9f4901eb45e9d629e427651046d1c3f3beae1ca664736f6c63430008090033",
    "linkReferences": {}
  },
  "methodIdentifiers": {
    "accrueInterest(bytes32,uint256,uint256)": "c6198352",
    "rates(bytes32)": "dc726205",
    "setRate(bytes32,uint128,uint128)": "9412647f"
  },
  "id": 20
}